{
  "_format": "hh-sol-artifact-1",
  "contractName": "EduswapV2View",
  "sourceName": "contracts/view/EduswapV2View.sol",
  "abi": [
    {
      "inputs": [],
      "name": "ARB",
      "outputs": [
        {
          "internalType": "address",
          "name": "",
          "type": "address"
        }
      ],
      "stateMutability": "view",
      "type": "function"
    },
    {
      "inputs": [],
      "name": "BTC",
      "outputs": [
        {
          "internalType": "address",
          "name": "",
          "type": "address"
        }
      ],
      "stateMutability": "view",
      "type": "function"
    },
    {
      "inputs": [],
      "name": "EDUSWAP",
      "outputs": [
        {
          "internalType": "address",
          "name": "",
          "type": "address"
        }
      ],
      "stateMutability": "view",
      "type": "function"
    },
    {
      "inputs": [],
      "name": "ETH",
      "outputs": [
        {
          "internalType": "address",
          "name": "",
          "type": "address"
        }
      ],
      "stateMutability": "view",
      "type": "function"
    },
    {
      "inputs": [],
      "name": "USDC",
      "outputs": [
        {
          "internalType": "address",
          "name": "",
          "type": "address"
        }
      ],
      "stateMutability": "view",
      "type": "function"
    },
    {
      "inputs": [],
      "name": "WEDU",
      "outputs": [
        {
          "internalType": "address",
          "name": "",
          "type": "address"
        }
      ],
      "stateMutability": "view",
      "type": "function"
    },
    {
      "inputs": [],
      "name": "factory",
      "outputs": [
        {
          "internalType": "address",
          "name": "",
          "type": "address"
        }
      ],
      "stateMutability": "view",
      "type": "function"
    },
    {
      "inputs": [
        {
          "internalType": "uint256",
          "name": "amountOut",
          "type": "uint256"
        },
        {
          "internalType": "address[][]",
          "name": "paths",
          "type": "address[][]"
        }
      ],
      "name": "getAmountsInInfo",
      "outputs": [
        {
          "internalType": "uint256[]",
          "name": "amountsIn",
          "type": "uint256[]"
        },
        {
          "internalType": "uint256[]",
          "name": "spotPrices",
          "type": "uint256[]"
        }
      ],
      "stateMutability": "view",
      "type": "function"
    },
    {
      "inputs": [
        {
          "internalType": "uint256",
          "name": "amountIn",
          "type": "uint256"
        },
        {
          "internalType": "address[][]",
          "name": "paths",
          "type": "address[][]"
        }
      ],
      "name": "getAmountsOutInfo",
      "outputs": [
        {
          "internalType": "uint256[]",
          "name": "amountsOut",
          "type": "uint256[]"
        },
        {
          "internalType": "uint256[]",
          "name": "spotPrices",
          "type": "uint256[]"
        }
      ],
      "stateMutability": "view",
      "type": "function"
    },
    {
      "inputs": [
        {
          "internalType": "uint256",
          "name": "poolId",
          "type": "uint256"
        },
        {
          "internalType": "address",
          "name": "user",
          "type": "address"
        }
      ],
      "name": "getMyPoolData",
      "outputs": [
        {
          "components": [
            {
              "internalType": "address",
              "name": "pair",
              "type": "address"
            },
            {
              "internalType": "address",
              "name": "token0",
              "type": "address"
            },
            {
              "internalType": "address",
              "name": "token1",
              "type": "address"
            },
            {
              "internalType": "string",
              "name": "name0",
              "type": "string"
            },
            {
              "internalType": "string",
              "name": "name1",
              "type": "string"
            },
            {
              "internalType": "string",
              "name": "symbol0",
              "type": "string"
            },
            {
              "internalType": "string",
              "name": "symbol1",
              "type": "string"
            },
            {
              "internalType": "uint256",
              "name": "decimals0",
              "type": "uint256"
            },
            {
              "internalType": "uint256",
              "name": "decimals1",
              "type": "uint256"
            },
            {
              "internalType": "uint256",
              "name": "reserve0",
              "type": "uint256"
            },
            {
              "internalType": "uint256",
              "name": "reserve1",
              "type": "uint256"
            },
            {
              "internalType": "uint256",
              "name": "balance0",
              "type": "uint256"
            },
            {
              "internalType": "uint256",
              "name": "balance1",
              "type": "uint256"
            },
            {
              "internalType": "uint256",
              "name": "price0",
              "type": "uint256"
            },
            {
              "internalType": "uint256",
              "name": "price1",
              "type": "uint256"
            },
            {
              "internalType": "uint256",
              "name": "supply",
              "type": "uint256"
            },
            {
              "internalType": "uint256",
              "name": "mysupply",
              "type": "uint256"
            }
          ],
          "internalType": "struct EduswapV2View.MyPoolData",
          "name": "data",
          "type": "tuple"
        }
      ],
      "stateMutability": "view",
      "type": "function"
    },
    {
      "inputs": [
        {
          "internalType": "uint256[]",
          "name": "poolIds",
          "type": "uint256[]"
        },
        {
          "internalType": "address",
          "name": "user",
          "type": "address"
        }
      ],
      "name": "getMyPoolDatas",
      "outputs": [
        {
          "components": [
            {
              "internalType": "address",
              "name": "pair",
              "type": "address"
            },
            {
              "internalType": "address",
              "name": "token0",
              "type": "address"
            },
            {
              "internalType": "address",
              "name": "token1",
              "type": "address"
            },
            {
              "internalType": "string",
              "name": "name0",
              "type": "string"
            },
            {
              "internalType": "string",
              "name": "name1",
              "type": "string"
            },
            {
              "internalType": "string",
              "name": "symbol0",
              "type": "string"
            },
            {
              "internalType": "string",
              "name": "symbol1",
              "type": "string"
            },
            {
              "internalType": "uint256",
              "name": "decimals0",
              "type": "uint256"
            },
            {
              "internalType": "uint256",
              "name": "decimals1",
              "type": "uint256"
            },
            {
              "internalType": "uint256",
              "name": "reserve0",
              "type": "uint256"
            },
            {
              "internalType": "uint256",
              "name": "reserve1",
              "type": "uint256"
            },
            {
              "internalType": "uint256",
              "name": "balance0",
              "type": "uint256"
            },
            {
              "internalType": "uint256",
              "name": "balance1",
              "type": "uint256"
            },
            {
              "internalType": "uint256",
              "name": "price0",
              "type": "uint256"
            },
            {
              "internalType": "uint256",
              "name": "price1",
              "type": "uint256"
            },
            {
              "internalType": "uint256",
              "name": "supply",
              "type": "uint256"
            },
            {
              "internalType": "uint256",
              "name": "mysupply",
              "type": "uint256"
            }
          ],
          "internalType": "struct EduswapV2View.MyPoolData[]",
          "name": "datas",
          "type": "tuple[]"
        }
      ],
      "stateMutability": "view",
      "type": "function"
    },
    {
      "inputs": [
        {
          "internalType": "uint256",
          "name": "poolId",
          "type": "uint256"
        }
      ],
      "name": "getPoolData",
      "outputs": [
        {
          "components": [
            {
              "internalType": "address",
              "name": "pair",
              "type": "address"
            },
            {
              "internalType": "address",
              "name": "token0",
              "type": "address"
            },
            {
              "internalType": "address",
              "name": "token1",
              "type": "address"
            },
            {
              "internalType": "string",
              "name": "name0",
              "type": "string"
            },
            {
              "internalType": "string",
              "name": "name1",
              "type": "string"
            },
            {
              "internalType": "string",
              "name": "symbol0",
              "type": "string"
            },
            {
              "internalType": "string",
              "name": "symbol1",
              "type": "string"
            },
            {
              "internalType": "uint256",
              "name": "decimals0",
              "type": "uint256"
            },
            {
              "internalType": "uint256",
              "name": "decimals1",
              "type": "uint256"
            },
            {
              "internalType": "uint256",
              "name": "reserve0",
              "type": "uint256"
            },
            {
              "internalType": "uint256",
              "name": "reserve1",
              "type": "uint256"
            },
            {
              "internalType": "uint256",
              "name": "price0",
              "type": "uint256"
            },
            {
              "internalType": "uint256",
              "name": "price1",
              "type": "uint256"
            },
            {
              "internalType": "uint256",
              "name": "supply",
              "type": "uint256"
            }
          ],
          "internalType": "struct EduswapV2View.PoolData",
          "name": "data",
          "type": "tuple"
        }
      ],
      "stateMutability": "view",
      "type": "function"
    },
    {
      "inputs": [
        {
          "internalType": "uint256[]",
          "name": "poolIds",
          "type": "uint256[]"
        }
      ],
      "name": "getPoolDatas",
      "outputs": [
        {
          "components": [
            {
              "internalType": "address",
              "name": "pair",
              "type": "address"
            },
            {
              "internalType": "address",
              "name": "token0",
              "type": "address"
            },
            {
              "internalType": "address",
              "name": "token1",
              "type": "address"
            },
            {
              "internalType": "string",
              "name": "name0",
              "type": "string"
            },
            {
              "internalType": "string",
              "name": "name1",
              "type": "string"
            },
            {
              "internalType": "string",
              "name": "symbol0",
              "type": "string"
            },
            {
              "internalType": "string",
              "name": "symbol1",
              "type": "string"
            },
            {
              "internalType": "uint256",
              "name": "decimals0",
              "type": "uint256"
            },
            {
              "internalType": "uint256",
              "name": "decimals1",
              "type": "uint256"
            },
            {
              "internalType": "uint256",
              "name": "reserve0",
              "type": "uint256"
            },
            {
              "internalType": "uint256",
              "name": "reserve1",
              "type": "uint256"
            },
            {
              "internalType": "uint256",
              "name": "price0",
              "type": "uint256"
            },
            {
              "internalType": "uint256",
              "name": "price1",
              "type": "uint256"
            },
            {
              "internalType": "uint256",
              "name": "supply",
              "type": "uint256"
            }
          ],
          "internalType": "struct EduswapV2View.PoolData[]",
          "name": "datas",
          "type": "tuple[]"
        }
      ],
      "stateMutability": "view",
      "type": "function"
    },
    {
      "inputs": [
        {
          "internalType": "address[]",
          "name": "path",
          "type": "address[]"
        }
      ],
      "name": "getSpotPrice",
      "outputs": [
        {
          "internalType": "uint256",
          "name": "price",
          "type": "uint256"
        }
      ],
      "stateMutability": "view",
      "type": "function"
    },
    {
      "inputs": [
        {
          "internalType": "address[]",
          "name": "tokens",
          "type": "address[]"
        },
        {
          "internalType": "address",
          "name": "user",
          "type": "address"
        }
      ],
      "name": "getTokenBalances",
      "outputs": [
        {
          "internalType": "uint256[]",
          "name": "balances",
          "type": "uint256[]"
        }
      ],
      "stateMutability": "view",
      "type": "function"
    },
    {
      "inputs": [
        {
          "internalType": "address",
          "name": "token",
          "type": "address"
        }
      ],
      "name": "getTokenPrice",
      "outputs": [
        {
          "internalType": "uint256",
          "name": "price",
          "type": "uint256"
        }
      ],
      "stateMutability": "view",
      "type": "function"
    },
    {
      "inputs": [],
      "name": "router",
      "outputs": [
        {
          "internalType": "address",
          "name": "",
          "type": "address"
        }
      ],
      "stateMutability": "view",
      "type": "function"
    }
  ],
  "bytecode": "0x608060405234801561001057600080fd5b506127b0806100206000396000f3fe608060405234801561001057600080fd5b506004361061010b5760003560e01c806389a30271116100a2578063d02641a011610071578063d02641a014610283578063d21c87ad14610296578063eac6db79146102b6578063ee5c6976146102d6578063f887ea40146102f657600080fd5b806389a3027114610212578063c02c7c131461022d578063c3fae36214610248578063c45a01551461026857600080fd5b806364a285fd116100de57806364a285fd146101ae5780636df754e0146101c95780637d7cf6c5146101dc5780638322fff2146101f757600080fd5b806316a3078d146101105780632792949d146101395780633accf4b91461016c5780634c5eed951461018d575b600080fd5b61012361011e366004611ca6565b610311565b6040516101309190611e4c565b60405180910390f35b61015473324e4d9afbee1b5ca0c0f37e7b771a18094b39a681565b6040516001600160a01b039091168152602001610130565b61017f61017a366004611f47565b610a33565b604051908152602001610130565b6101a061019b366004611f83565b610dc1565b60405161013092919061207b565b610154733fba3ef10e452d1e8cc6c0cf552a8a25b572ec4181565b6101a06101d7366004611f83565b610f74565b61015473bd51800607e7c743a0e9b0d89d837058f4f4275681565b6101547390f2f4e97eb6b62d9049d07c6f6877fd171a9a0f81565b610154737afb87ae9e37c365955012527f8a9039d6f2ca3081565b61015473104a0f99728d5a79dbebb4a0a58eccb456e8241181565b61025b6102563660046120a9565b61112b565b60405161013091906120ef565b61015473adc632cf7d62ceef5cea6369b49684e835f62f3681565b61017f610291366004612102565b611271565b6102a96102a436600461211f565b6114c0565b604051610130919061223d565b6102c96102c43660046122af565b611a10565b60405161013091906122e4565b6102e96102e4366004612348565b611abb565b604051610130919061237c565b61015473e745f43775b760958cd34ee83b3ab0c088f7463081565b610319611b65565b604051631e3dd18b60e01b81526004810184905273adc632cf7d62ceef5cea6369b49684e835f62f3690631e3dd18b90602401602060405180830381865afa158015610369573d6000803e3d6000fd5b505050506040513d601f19601f8201168201806040525081019061038d91906123d3565b6001600160a01b031680825260408051630dfe168160e01b81529051630dfe1681916004808201926020929091908290030181865afa1580156103d4573d6000803e3d6000fd5b505050506040513d601f19601f820116820180604052508101906103f891906123d3565b81602001906001600160a01b031690816001600160a01b03168152505080600001516001600160a01b031663d21220a76040518163ffffffff1660e01b8152600401602060405180830381865afa158015610457573d6000803e3d6000fd5b505050506040513d601f19601f8201168201806040525081019061047b91906123d3565b81604001906001600160a01b031690816001600160a01b03168152505080602001516001600160a01b03166306fdde036040518163ffffffff1660e01b8152600401600060405180830381865afa1580156104da573d6000803e3d6000fd5b505050506040513d6000823e601f3d908101601f1916820160405261050291908101906123f0565b816060018190525080604001516001600160a01b03166306fdde036040518163ffffffff1660e01b8152600401600060405180830381865afa15801561054c573d6000803e3d6000fd5b505050506040513d6000823e601f3d908101601f1916820160405261057491908101906123f0565b816080018190525080602001516001600160a01b03166395d89b416040518163ffffffff1660e01b8152600401600060405180830381865afa1580156105be573d6000803e3d6000fd5b505050506040513d6000823e601f3d908101601f191682016040526105e691908101906123f0565b8160a0018190525080604001516001600160a01b03166395d89b416040518163ffffffff1660e01b8152600401600060405180830381865afa158015610630573d6000803e3d6000fd5b505050506040513d6000823e601f3d908101601f1916820160405261065891908101906123f0565b8160c0018190525080602001516001600160a01b031663313ce5676040518163ffffffff1660e01b8152600401602060405180830381865afa1580156106a2573d6000803e3d6000fd5b505050506040513d601f19601f820116820180604052508101906106c69190612483565b60ff168160e001818152505080604001516001600160a01b031663313ce5676040518163ffffffff1660e01b8152600401602060405180830381865afa158015610714573d6000803e3d6000fd5b505050506040513d601f19601f820116820180604052508101906107389190612483565b60ff168161010001818152505080600001516001600160a01b0316630902f1ac6040518163ffffffff1660e01b8152600401606060405180830381865afa158015610787573d6000803e3d6000fd5b505050506040513d601f19601f820116820180604052508101906107ab91906124c2565b506001600160701b039081166101408401521661012082015260208101516001600160a01b031673bd51800607e7c743a0e9b0d89d837058f4f42756146108615760208101516040516370a0823160e01b81526001600160a01b038481166004830152909116906370a0823190602401602060405180830381865afa158015610838573d6000803e3d6000fd5b505050506040513d601f19601f8201168201806040525081019061085c9190612512565b61086d565b816001600160a01b0316315b61016082015260408101516001600160a01b031673bd51800607e7c743a0e9b0d89d837058f4f42756146109105760408082015190516370a0823160e01b81526001600160a01b038481166004830152909116906370a0823190602401602060405180830381865afa1580156108e7573d6000803e3d6000fd5b505050506040513d601f19601f8201168201806040525081019061090b9190612512565b61091c565b816001600160a01b0316315b610180820152602081015161093090611271565b6101a0820152604081015161094490611271565b816101c001818152505080600001516001600160a01b03166318160ddd6040518163ffffffff1660e01b8152600401602060405180830381865afa158015610990573d6000803e3d6000fd5b505050506040513d601f19601f820116820180604052508101906109b49190612512565b6101e082015280516040516370a0823160e01b81526001600160a01b038481166004830152909116906370a0823190602401602060405180830381865afa158015610a03573d6000803e3d6000fd5b505050506040513d601f19601f82011682018060405250810190610a279190612512565b61020082015292915050565b670de0b6b3a764000060015b8251811015610dbb57600073adc632cf7d62ceef5cea6369b49684e835f62f3663e6a4390585610a70600186612541565b81518110610a8057610a8061255a565b6020026020010151868581518110610a9a57610a9a61255a565b60200260200101516040518363ffffffff1660e01b8152600401610ad49291906001600160a01b0392831681529116602082015260400190565b602060405180830381865afa158015610af1573d6000803e3d6000fd5b505050506040513d601f19601f82011682018060405250810190610b1591906123d3565b9050600080826001600160a01b0316630902f1ac6040518163ffffffff1660e01b8152600401606060405180830381865afa158015610b58573d6000803e3d6000fd5b505050506040513d601f19601f82011682018060405250810190610b7c91906124c2565b506001600160701b031691506001600160701b031691506000868581518110610ba757610ba761255a565b60200260200101516001600160a01b031687600187610bc69190612541565b81518110610bd657610bd661255a565b60200260200101516001600160a01b031610610bf25781610bf4565b825b90506000878681518110610c0a57610c0a61255a565b60200260200101516001600160a01b031688600188610c299190612541565b81518110610c3957610c3961255a565b60200260200101516001600160a01b031611610c555782610c57565b835b9050600088610c67600189612541565b81518110610c7757610c7761255a565b60200260200101516001600160a01b031663313ce5676040518163ffffffff1660e01b8152600401602060405180830381865afa158015610cbc573d6000803e3d6000fd5b505050506040513d601f19601f82011682018060405250810190610ce09190612483565b60ff1690506000898881518110610cf957610cf961255a565b60200260200101516001600160a01b031663313ce5676040518163ffffffff1660e01b8152600401602060405180830381865afa158015610d3e573d6000803e3d6000fd5b505050506040513d601f19601f82011682018060405250810190610d629190612483565b60ff169050610d7281600a61264c565b84610d7e84600a61264c565b610d88868d612658565b610d929190612658565b610d9c919061266f565b610da6919061266f565b98505060019096019550610a3f945050505050565b50919050565b60608082516001600160401b03811115610ddd57610ddd611e66565b604051908082528060200260200182016040528015610e06578160200160208202803683370190505b50915082516001600160401b03811115610e2257610e22611e66565b604051908082528060200260200182016040528015610e4b578160200160208202803683370190505b50905060005b8351811015610f6c576000848281518110610e6e57610e6e61255a565b60200260200101519050600073e745f43775b760958cd34ee83b3ab0c088f746306001600160a01b0316631f00ca7488846040518363ffffffff1660e01b8152600401610ebc929190612691565b600060405180830381865afa158015610ed9573d6000803e3d6000fd5b505050506040513d6000823e601f3d908101601f19168201604052610f0191908101906126ea565b905080600081518110610f1657610f1661255a565b6020026020010151858481518110610f3057610f3061255a565b602002602001018181525050610f4582610a33565b848481518110610f5757610f5761255a565b60209081029190910101525050600101610e51565b509250929050565b60608082516001600160401b03811115610f9057610f90611e66565b604051908082528060200260200182016040528015610fb9578160200160208202803683370190505b50915082516001600160401b03811115610fd557610fd5611e66565b604051908082528060200260200182016040528015610ffe578160200160208202803683370190505b50905060005b8351811015610f6c5760008482815181106110215761102161255a565b60200260200101519050600073e745f43775b760958cd34ee83b3ab0c088f746306001600160a01b031663d06ca61f88846040518363ffffffff1660e01b815260040161106f929190612691565b600060405180830381865afa15801561108c573d6000803e3d6000fd5b505050506040513d6000823e601f3d908101601f191682016040526110b491908101906126ea565b905080600182516110c59190612541565b815181106110d5576110d561255a565b60200260200101518584815181106110ef576110ef61255a565b60200260200101818152505061110482610a33565b8484815181106111165761111661255a565b60209081029190910101525050600101611004565b606082516001600160401b0381111561114657611146611e66565b60405190808252806020026020018201604052801561116f578160200160208202803683370190505b50905060005b835181101561126a5760008482815181106111925761119261255a565b60200260200101519050806001600160a01b031673bd51800607e7c743a0e9b0d89d837058f4f427566001600160a01b031614611238576040516370a0823160e01b81526001600160a01b0385811660048301528216906370a0823190602401602060405180830381865afa15801561120f573d6000803e3d6000fd5b505050506040513d601f19601f820116820180604052508101906112339190612512565b611244565b836001600160a01b0316315b8383815181106112565761125661255a565b602090810291909101015250600101611175565b5092915050565b6000737afb87ae9e37c365955012527f8a9039d6f2ca2f196001600160a01b038316016112a75750670de0b6b3a7640000919050565b60405163e6a4390560e01b81526001600160a01b0383166004820152737afb87ae9e37c365955012527f8a9039d6f2ca30602482015260009073adc632cf7d62ceef5cea6369b49684e835f62f369063e6a4390590604401602060405180830381865afa15801561131c573d6000803e3d6000fd5b505050506040513d601f19601f8201168201806040525081019061134091906123d3565b90506000836001600160a01b031663313ce5676040518163ffffffff1660e01b8152600401602060405180830381865afa158015611382573d6000803e3d6000fd5b505050506040513d601f19601f820116820180604052508101906113a69190612483565b60ff169050600080836001600160a01b0316630902f1ac6040518163ffffffff1660e01b8152600401606060405180830381865afa1580156113ec573d6000803e3d6000fd5b505050506040513d601f19601f8201168201806040525081019061141091906124c2565b506001600160701b039182169350169050737afb87ae9e37c365955012527f8a9039d6f2ca306001600160a01b03871610156114855781611452846012612541565b61145d90600a61264c565b6114679083612658565b61147490620f4240612658565b61147e919061266f565b94506114b7565b8061149184600a61264c565b6114a08464e8d4a51000612658565b6114aa9190612658565b6114b4919061266f565b94505b50505050919050565b6114c8611c04565b604051631e3dd18b60e01b81526004810183905273adc632cf7d62ceef5cea6369b49684e835f62f3690631e3dd18b90602401602060405180830381865afa158015611518573d6000803e3d6000fd5b505050506040513d601f19601f8201168201806040525081019061153c91906123d3565b6001600160a01b031680825260408051630dfe168160e01b81529051630dfe1681916004808201926020929091908290030181865afa158015611583573d6000803e3d6000fd5b505050506040513d601f19601f820116820180604052508101906115a791906123d3565b81602001906001600160a01b031690816001600160a01b03168152505080600001516001600160a01b031663d21220a76040518163ffffffff1660e01b8152600401602060405180830381865afa158015611606573d6000803e3d6000fd5b505050506040513d601f19601f8201168201806040525081019061162a91906123d3565b81604001906001600160a01b031690816001600160a01b03168152505080602001516001600160a01b03166306fdde036040518163ffffffff1660e01b8152600401600060405180830381865afa158015611689573d6000803e3d6000fd5b505050506040513d6000823e601f3d908101601f191682016040526116b191908101906123f0565b816060018190525080604001516001600160a01b03166306fdde036040518163ffffffff1660e01b8152600401600060405180830381865afa1580156116fb573d6000803e3d6000fd5b505050506040513d6000823e601f3d908101601f1916820160405261172391908101906123f0565b816080018190525080602001516001600160a01b03166395d89b416040518163ffffffff1660e01b8152600401600060405180830381865afa15801561176d573d6000803e3d6000fd5b505050506040513d6000823e601f3d908101601f1916820160405261179591908101906123f0565b8160a0018190525080604001516001600160a01b03166395d89b416040518163ffffffff1660e01b8152600401600060405180830381865afa1580156117df573d6000803e3d6000fd5b505050506040513d6000823e601f3d908101601f1916820160405261180791908101906123f0565b8160c0018190525080602001516001600160a01b031663313ce5676040518163ffffffff1660e01b8152600401602060405180830381865afa158015611851573d6000803e3d6000fd5b505050506040513d601f19601f820116820180604052508101906118759190612483565b60ff168160e001818152505080604001516001600160a01b031663313ce5676040518163ffffffff1660e01b8152600401602060405180830381865afa1580156118c3573d6000803e3d6000fd5b505050506040513d601f19601f820116820180604052508101906118e79190612483565b60ff168161010001818152505080600001516001600160a01b0316630902f1ac6040518163ffffffff1660e01b8152600401606060405180830381865afa158015611936573d6000803e3d6000fd5b505050506040513d601f19601f8201168201806040525081019061195a91906124c2565b506001600160701b0390811661014084015216610120820152602081015161198190611271565b610160820152604081015161199590611271565b8161018001818152505080600001516001600160a01b03166318160ddd6040518163ffffffff1660e01b8152600401602060405180830381865afa1580156119e1573d6000803e3d6000fd5b505050506040513d601f19601f82011682018060405250810190611a059190612512565b6101a0820152919050565b606082516001600160401b03811115611a2b57611a2b611e66565b604051908082528060200260200182016040528015611a6457816020015b611a51611b65565b815260200190600190039081611a495790505b50905060005b835181101561126a57611a96848281518110611a8857611a8861255a565b602002602001015184610311565b828281518110611aa857611aa861255a565b6020908102919091010152600101611a6a565b606081516001600160401b03811115611ad657611ad6611e66565b604051908082528060200260200182016040528015611b0f57816020015b611afc611c04565b815260200190600190039081611af45790505b50905060005b8251811015610dbb57611b40838281518110611b3357611b3361255a565b60200260200101516114c0565b828281518110611b5257611b5261255a565b6020908102919091010152600101611b15565b60405180610220016040528060006001600160a01b0316815260200160006001600160a01b0316815260200160006001600160a01b0316815260200160608152602001606081526020016060815260200160608152602001600081526020016000815260200160008152602001600081526020016000815260200160008152602001600081526020016000815260200160008152602001600081525090565b604051806101c0016040528060006001600160a01b0316815260200160006001600160a01b0316815260200160006001600160a01b0316815260200160608152602001606081526020016060815260200160608152602001600081526020016000815260200160008152602001600081526020016000815260200160008152602001600081525090565b6001600160a01b0381168114611ca357600080fd5b50565b60008060408385031215611cb957600080fd5b823591506020830135611ccb81611c8e565b809150509250929050565b60005b83811015611cf1578181015183820152602001611cd9565b50506000910152565b60008151808452611d12816020860160208601611cd6565b601f01601f19169290920160200192915050565b80516001600160a01b0316825260006102206020830151611d5260208601826001600160a01b03169052565b506040830151611d6d60408601826001600160a01b03169052565b506060830151816060860152611d8582860182611cfa565b91505060808301518482036080860152611d9f8282611cfa565b91505060a083015184820360a0860152611db98282611cfa565b91505060c083015184820360c0860152611dd38282611cfa565b60e08581015190870152610100808601519087015261012080860151908701526101408086015190870152610160808601519087015261018080860151908701526101a080860151908701526101c080860151908701526101e08086015190870152610200948501519490950193909352509192915050565b602081526000611e5f6020830184611d26565b9392505050565b634e487b7160e01b600052604160045260246000fd5b604051601f8201601f191681016001600160401b0381118282101715611ea457611ea4611e66565b604052919050565b60006001600160401b03821115611ec557611ec5611e66565b5060051b60200190565b600082601f830112611ee057600080fd5b81356020611ef5611ef083611eac565b611e7c565b8083825260208201915060208460051b870101935086841115611f1757600080fd5b602086015b84811015611f3c578035611f2f81611c8e565b8352918301918301611f1c565b509695505050505050565b600060208284031215611f5957600080fd5b81356001600160401b03811115611f6f57600080fd5b611f7b84828501611ecf565b949350505050565b60008060408385031215611f9657600080fd5b823591506020808401356001600160401b0380821115611fb557600080fd5b818601915086601f830112611fc957600080fd5b8135611fd7611ef082611eac565b81815260059190911b83018401908481019089831115611ff657600080fd5b8585015b8381101561202e578035858111156120125760008081fd5b6120208c89838a0101611ecf565b845250918601918601611ffa565b508096505050505050509250929050565b60008151808452602080850194506020840160005b8381101561207057815187529582019590820190600101612054565b509495945050505050565b60408152600061208e604083018561203f565b82810360208401526120a0818561203f565b95945050505050565b600080604083850312156120bc57600080fd5b82356001600160401b038111156120d257600080fd5b6120de85828601611ecf565b9250506020830135611ccb81611c8e565b602081526000611e5f602083018461203f565b60006020828403121561211457600080fd5b8135611e5f81611c8e565b60006020828403121561213157600080fd5b5035919050565b80516001600160a01b0316825260006101c0602083015161216460208601826001600160a01b03169052565b50604083015161217f60408601826001600160a01b03169052565b50606083015181606086015261219782860182611cfa565b915050608083015184820360808601526121b18282611cfa565b91505060a083015184820360a08601526121cb8282611cfa565b91505060c083015184820360c08601526121e58282611cfa565b60e08581015190870152610100808601519087015261012080860151908701526101408086015190870152610160808601519087015261018080860151908701526101a0948501519490950193909352509192915050565b602081526000611e5f6020830184612138565b600082601f83011261226157600080fd5b81356020612271611ef083611eac565b8083825260208201915060208460051b87010193508684111561229357600080fd5b602086015b84811015611f3c5780358352918301918301612298565b600080604083850312156122c257600080fd5b82356001600160401b038111156122d857600080fd5b6120de85828601612250565b600060208083016020845280855180835260408601915060408160051b87010192506020870160005b8281101561233b57603f19888603018452612329858351611d26565b9450928501929085019060010161230d565b5092979650505050505050565b60006020828403121561235a57600080fd5b81356001600160401b0381111561237057600080fd5b611f7b84828501612250565b600060208083016020845280855180835260408601915060408160051b87010192506020870160005b8281101561233b57603f198886030184526123c1858351612138565b945092850192908501906001016123a5565b6000602082840312156123e557600080fd5b8151611e5f81611c8e565b60006020828403121561240257600080fd5b81516001600160401b038082111561241957600080fd5b818401915084601f83011261242d57600080fd5b81518181111561243f5761243f611e66565b612452601f8201601f1916602001611e7c565b915080825285602082850101111561246957600080fd5b61247a816020840160208601611cd6565b50949350505050565b60006020828403121561249557600080fd5b815160ff81168114611e5f57600080fd5b80516001600160701b03811681146124bd57600080fd5b919050565b6000806000606084860312156124d757600080fd5b6124e0846124a6565b92506124ee602085016124a6565b9150604084015163ffffffff8116811461250757600080fd5b809150509250925092565b60006020828403121561252457600080fd5b5051919050565b634e487b7160e01b600052601160045260246000fd5b818103818111156125545761255461252b565b92915050565b634e487b7160e01b600052603260045260246000fd5b600181815b80851115610f6c5781600019048211156125915761259161252b565b8085161561259e57918102915b93841c9390800290612575565b6000826125ba57506001612554565b816125c757506000612554565b81600181146125dd57600281146125e757612603565b6001915050612554565b60ff8411156125f8576125f861252b565b50506001821b612554565b5060208310610133831016604e8410600b8410161715612626575081810a612554565b6126308383612570565b80600019048211156126445761264461252b565b029392505050565b6000611e5f83836125ab565b80820281158282048414176125545761255461252b565b60008261268c57634e487b7160e01b600052601260045260246000fd5b500490565b60006040820184835260206040602085015281855180845260608601915060208701935060005b818110156126dd5784516001600160a01b0316835293830193918301916001016126b8565b5090979650505050505050565b600060208083850312156126fd57600080fd5b82516001600160401b0381111561271357600080fd5b8301601f8101851361272457600080fd5b8051612732611ef082611eac565b81815260059190911b8201830190838101908783111561275157600080fd5b928401925b8284101561276f57835182529284019290840190612756565b97965050505050505056fea264697066735822122079952cecff3d781355ee01734307216658daf339c5d8196a49fc88f521e3749764736f6c63430008180033",
  "linkReferences": {},
  "deployedLinkReferences": {}
}