{
  "_format": "hh-sol-artifact-1",
  "contractName": "EduswapV2View",
  "sourceName": "contracts/view/EduswapV2View.sol",
  "abi": [
    {
      "inputs": [],
      "name": "ARB",
      "outputs": [
        {
          "internalType": "address",
          "name": "",
          "type": "address"
        }
      ],
      "stateMutability": "view",
      "type": "function"
    },
    {
      "inputs": [],
      "name": "BTC",
      "outputs": [
        {
          "internalType": "address",
          "name": "",
          "type": "address"
        }
      ],
      "stateMutability": "view",
      "type": "function"
    },
    {
      "inputs": [],
      "name": "EDUSWAP",
      "outputs": [
        {
          "internalType": "address",
          "name": "",
          "type": "address"
        }
      ],
      "stateMutability": "view",
      "type": "function"
    },
    {
      "inputs": [],
      "name": "ETH",
      "outputs": [
        {
          "internalType": "address",
          "name": "",
          "type": "address"
        }
      ],
      "stateMutability": "view",
      "type": "function"
    },
    {
      "inputs": [],
      "name": "USDC",
      "outputs": [
        {
          "internalType": "address",
          "name": "",
          "type": "address"
        }
      ],
      "stateMutability": "view",
      "type": "function"
    },
    {
      "inputs": [],
      "name": "WEDU",
      "outputs": [
        {
          "internalType": "address",
          "name": "",
          "type": "address"
        }
      ],
      "stateMutability": "view",
      "type": "function"
    },
    {
      "inputs": [],
      "name": "factory",
      "outputs": [
        {
          "internalType": "address",
          "name": "",
          "type": "address"
        }
      ],
      "stateMutability": "view",
      "type": "function"
    },
    {
      "inputs": [
        {
          "internalType": "uint256",
          "name": "amountIn",
          "type": "uint256"
        },
        {
          "internalType": "address[][]",
          "name": "paths",
          "type": "address[][]"
        }
      ],
      "name": "getAmountsOutInfo",
      "outputs": [
        {
          "internalType": "uint256[]",
          "name": "amountsOut",
          "type": "uint256[]"
        },
        {
          "internalType": "uint256[]",
          "name": "spotPrices",
          "type": "uint256[]"
        }
      ],
      "stateMutability": "view",
      "type": "function"
    },
    {
      "inputs": [
        {
          "internalType": "uint256",
          "name": "poolId",
          "type": "uint256"
        },
        {
          "internalType": "address",
          "name": "user",
          "type": "address"
        }
      ],
      "name": "getMyPoolData",
      "outputs": [
        {
          "components": [
            {
              "internalType": "address",
              "name": "pair",
              "type": "address"
            },
            {
              "internalType": "address",
              "name": "token0",
              "type": "address"
            },
            {
              "internalType": "address",
              "name": "token1",
              "type": "address"
            },
            {
              "internalType": "string",
              "name": "name0",
              "type": "string"
            },
            {
              "internalType": "string",
              "name": "name1",
              "type": "string"
            },
            {
              "internalType": "string",
              "name": "symbol0",
              "type": "string"
            },
            {
              "internalType": "string",
              "name": "symbol1",
              "type": "string"
            },
            {
              "internalType": "uint256",
              "name": "decimals0",
              "type": "uint256"
            },
            {
              "internalType": "uint256",
              "name": "decimals1",
              "type": "uint256"
            },
            {
              "internalType": "uint256",
              "name": "reserve0",
              "type": "uint256"
            },
            {
              "internalType": "uint256",
              "name": "reserve1",
              "type": "uint256"
            },
            {
              "internalType": "uint256",
              "name": "balance0",
              "type": "uint256"
            },
            {
              "internalType": "uint256",
              "name": "balance1",
              "type": "uint256"
            },
            {
              "internalType": "uint256",
              "name": "price0",
              "type": "uint256"
            },
            {
              "internalType": "uint256",
              "name": "price1",
              "type": "uint256"
            },
            {
              "internalType": "uint256",
              "name": "supply",
              "type": "uint256"
            },
            {
              "internalType": "uint256",
              "name": "mysupply",
              "type": "uint256"
            }
          ],
          "internalType": "struct EduswapV2View.MyPoolData",
          "name": "data",
          "type": "tuple"
        }
      ],
      "stateMutability": "view",
      "type": "function"
    },
    {
      "inputs": [
        {
          "internalType": "uint256[]",
          "name": "poolIds",
          "type": "uint256[]"
        },
        {
          "internalType": "address",
          "name": "user",
          "type": "address"
        }
      ],
      "name": "getMyPoolDatas",
      "outputs": [
        {
          "components": [
            {
              "internalType": "address",
              "name": "pair",
              "type": "address"
            },
            {
              "internalType": "address",
              "name": "token0",
              "type": "address"
            },
            {
              "internalType": "address",
              "name": "token1",
              "type": "address"
            },
            {
              "internalType": "string",
              "name": "name0",
              "type": "string"
            },
            {
              "internalType": "string",
              "name": "name1",
              "type": "string"
            },
            {
              "internalType": "string",
              "name": "symbol0",
              "type": "string"
            },
            {
              "internalType": "string",
              "name": "symbol1",
              "type": "string"
            },
            {
              "internalType": "uint256",
              "name": "decimals0",
              "type": "uint256"
            },
            {
              "internalType": "uint256",
              "name": "decimals1",
              "type": "uint256"
            },
            {
              "internalType": "uint256",
              "name": "reserve0",
              "type": "uint256"
            },
            {
              "internalType": "uint256",
              "name": "reserve1",
              "type": "uint256"
            },
            {
              "internalType": "uint256",
              "name": "balance0",
              "type": "uint256"
            },
            {
              "internalType": "uint256",
              "name": "balance1",
              "type": "uint256"
            },
            {
              "internalType": "uint256",
              "name": "price0",
              "type": "uint256"
            },
            {
              "internalType": "uint256",
              "name": "price1",
              "type": "uint256"
            },
            {
              "internalType": "uint256",
              "name": "supply",
              "type": "uint256"
            },
            {
              "internalType": "uint256",
              "name": "mysupply",
              "type": "uint256"
            }
          ],
          "internalType": "struct EduswapV2View.MyPoolData[]",
          "name": "datas",
          "type": "tuple[]"
        }
      ],
      "stateMutability": "view",
      "type": "function"
    },
    {
      "inputs": [
        {
          "internalType": "uint256",
          "name": "poolId",
          "type": "uint256"
        }
      ],
      "name": "getPoolData",
      "outputs": [
        {
          "components": [
            {
              "internalType": "address",
              "name": "pair",
              "type": "address"
            },
            {
              "internalType": "address",
              "name": "token0",
              "type": "address"
            },
            {
              "internalType": "address",
              "name": "token1",
              "type": "address"
            },
            {
              "internalType": "string",
              "name": "name0",
              "type": "string"
            },
            {
              "internalType": "string",
              "name": "name1",
              "type": "string"
            },
            {
              "internalType": "string",
              "name": "symbol0",
              "type": "string"
            },
            {
              "internalType": "string",
              "name": "symbol1",
              "type": "string"
            },
            {
              "internalType": "uint256",
              "name": "decimals0",
              "type": "uint256"
            },
            {
              "internalType": "uint256",
              "name": "decimals1",
              "type": "uint256"
            },
            {
              "internalType": "uint256",
              "name": "reserve0",
              "type": "uint256"
            },
            {
              "internalType": "uint256",
              "name": "reserve1",
              "type": "uint256"
            },
            {
              "internalType": "uint256",
              "name": "price0",
              "type": "uint256"
            },
            {
              "internalType": "uint256",
              "name": "price1",
              "type": "uint256"
            },
            {
              "internalType": "uint256",
              "name": "supply",
              "type": "uint256"
            }
          ],
          "internalType": "struct EduswapV2View.PoolData",
          "name": "data",
          "type": "tuple"
        }
      ],
      "stateMutability": "view",
      "type": "function"
    },
    {
      "inputs": [
        {
          "internalType": "uint256[]",
          "name": "poolIds",
          "type": "uint256[]"
        }
      ],
      "name": "getPoolDatas",
      "outputs": [
        {
          "components": [
            {
              "internalType": "address",
              "name": "pair",
              "type": "address"
            },
            {
              "internalType": "address",
              "name": "token0",
              "type": "address"
            },
            {
              "internalType": "address",
              "name": "token1",
              "type": "address"
            },
            {
              "internalType": "string",
              "name": "name0",
              "type": "string"
            },
            {
              "internalType": "string",
              "name": "name1",
              "type": "string"
            },
            {
              "internalType": "string",
              "name": "symbol0",
              "type": "string"
            },
            {
              "internalType": "string",
              "name": "symbol1",
              "type": "string"
            },
            {
              "internalType": "uint256",
              "name": "decimals0",
              "type": "uint256"
            },
            {
              "internalType": "uint256",
              "name": "decimals1",
              "type": "uint256"
            },
            {
              "internalType": "uint256",
              "name": "reserve0",
              "type": "uint256"
            },
            {
              "internalType": "uint256",
              "name": "reserve1",
              "type": "uint256"
            },
            {
              "internalType": "uint256",
              "name": "price0",
              "type": "uint256"
            },
            {
              "internalType": "uint256",
              "name": "price1",
              "type": "uint256"
            },
            {
              "internalType": "uint256",
              "name": "supply",
              "type": "uint256"
            }
          ],
          "internalType": "struct EduswapV2View.PoolData[]",
          "name": "datas",
          "type": "tuple[]"
        }
      ],
      "stateMutability": "view",
      "type": "function"
    },
    {
      "inputs": [
        {
          "internalType": "address[]",
          "name": "path",
          "type": "address[]"
        }
      ],
      "name": "getSpotPrice",
      "outputs": [
        {
          "internalType": "uint256",
          "name": "price",
          "type": "uint256"
        }
      ],
      "stateMutability": "view",
      "type": "function"
    },
    {
      "inputs": [
        {
          "internalType": "address[]",
          "name": "tokens",
          "type": "address[]"
        },
        {
          "internalType": "address",
          "name": "user",
          "type": "address"
        }
      ],
      "name": "getTokenBalances",
      "outputs": [
        {
          "internalType": "uint256[]",
          "name": "balances",
          "type": "uint256[]"
        }
      ],
      "stateMutability": "view",
      "type": "function"
    },
    {
      "inputs": [
        {
          "internalType": "address",
          "name": "token",
          "type": "address"
        }
      ],
      "name": "getTokenPrice",
      "outputs": [
        {
          "internalType": "uint256",
          "name": "price",
          "type": "uint256"
        }
      ],
      "stateMutability": "view",
      "type": "function"
    },
    {
      "inputs": [],
      "name": "router",
      "outputs": [
        {
          "internalType": "address",
          "name": "",
          "type": "address"
        }
      ],
      "stateMutability": "view",
      "type": "function"
    }
  ],
  "bytecode": "0x608060405234801561001057600080fd5b506125c8806100206000396000f3fe608060405234801561001057600080fd5b50600436106101005760003560e01c8063c02c7c1311610097578063d21c87ad11610066578063d21c87ad14610278578063eac6db7914610298578063ee5c6976146102b8578063f887ea40146102d857600080fd5b8063c02c7c131461020f578063c3fae3621461022a578063c45a01551461024a578063d02641a01461026557600080fd5b80636df754e0116100d35780636df754e01461019d5780637d7cf6c5146101be5780638322fff2146101d957806389a30271146101f457600080fd5b806316a3078d146101055780632792949d1461012e5780633accf4b91461016157806364a285fd14610182575b600080fd5b610118610113366004611ac2565b6102f3565b6040516101259190611c68565b60405180910390f35b61014973324e4d9afbee1b5ca0c0f37e7b771a18094b39a681565b6040516001600160a01b039091168152602001610125565b61017461016f366004611d63565b610a15565b604051908152602001610125565b610149733fba3ef10e452d1e8cc6c0cf552a8a25b572ec4181565b6101b06101ab366004611d9f565b610d88565b604051610125929190611e97565b61014973bd51800607e7c743a0e9b0d89d837058f4f4275681565b6101497390f2f4e97eb6b62d9049d07c6f6877fd171a9a0f81565b610149737afb87ae9e37c365955012527f8a9039d6f2ca3081565b61014973104a0f99728d5a79dbebb4a0a58eccb456e8241181565b61023d610238366004611ec5565b610f47565b6040516101259190611f0b565b61014973adc632cf7d62ceef5cea6369b49684e835f62f3681565b610174610273366004611f1e565b61108d565b61028b610286366004611f3b565b6112dc565b6040516101259190612059565b6102ab6102a63660046120cb565b61182c565b6040516101259190612100565b6102cb6102c6366004612164565b6118d7565b6040516101259190612198565b61014973e745f43775b760958cd34ee83b3ab0c088f7463081565b6102fb611981565b604051631e3dd18b60e01b81526004810184905273adc632cf7d62ceef5cea6369b49684e835f62f3690631e3dd18b90602401602060405180830381865afa15801561034b573d6000803e3d6000fd5b505050506040513d601f19601f8201168201806040525081019061036f91906121ef565b6001600160a01b031680825260408051630dfe168160e01b81529051630dfe1681916004808201926020929091908290030181865afa1580156103b6573d6000803e3d6000fd5b505050506040513d601f19601f820116820180604052508101906103da91906121ef565b81602001906001600160a01b031690816001600160a01b03168152505080600001516001600160a01b031663d21220a76040518163ffffffff1660e01b8152600401602060405180830381865afa158015610439573d6000803e3d6000fd5b505050506040513d601f19601f8201168201806040525081019061045d91906121ef565b81604001906001600160a01b031690816001600160a01b03168152505080602001516001600160a01b03166306fdde036040518163ffffffff1660e01b8152600401600060405180830381865afa1580156104bc573d6000803e3d6000fd5b505050506040513d6000823e601f3d908101601f191682016040526104e4919081019061220c565b816060018190525080604001516001600160a01b03166306fdde036040518163ffffffff1660e01b8152600401600060405180830381865afa15801561052e573d6000803e3d6000fd5b505050506040513d6000823e601f3d908101601f19168201604052610556919081019061220c565b816080018190525080602001516001600160a01b03166395d89b416040518163ffffffff1660e01b8152600401600060405180830381865afa1580156105a0573d6000803e3d6000fd5b505050506040513d6000823e601f3d908101601f191682016040526105c8919081019061220c565b8160a0018190525080604001516001600160a01b03166395d89b416040518163ffffffff1660e01b8152600401600060405180830381865afa158015610612573d6000803e3d6000fd5b505050506040513d6000823e601f3d908101601f1916820160405261063a919081019061220c565b8160c0018190525080602001516001600160a01b031663313ce5676040518163ffffffff1660e01b8152600401602060405180830381865afa158015610684573d6000803e3d6000fd5b505050506040513d601f19601f820116820180604052508101906106a8919061229f565b60ff168160e001818152505080604001516001600160a01b031663313ce5676040518163ffffffff1660e01b8152600401602060405180830381865afa1580156106f6573d6000803e3d6000fd5b505050506040513d601f19601f8201168201806040525081019061071a919061229f565b60ff168161010001818152505080600001516001600160a01b0316630902f1ac6040518163ffffffff1660e01b8152600401606060405180830381865afa158015610769573d6000803e3d6000fd5b505050506040513d601f19601f8201168201806040525081019061078d91906122de565b506001600160701b039081166101408401521661012082015260208101516001600160a01b031673bd51800607e7c743a0e9b0d89d837058f4f42756146108435760208101516040516370a0823160e01b81526001600160a01b038481166004830152909116906370a0823190602401602060405180830381865afa15801561081a573d6000803e3d6000fd5b505050506040513d601f19601f8201168201806040525081019061083e919061232e565b61084f565b816001600160a01b0316315b61016082015260408101516001600160a01b031673bd51800607e7c743a0e9b0d89d837058f4f42756146108f25760408082015190516370a0823160e01b81526001600160a01b038481166004830152909116906370a0823190602401602060405180830381865afa1580156108c9573d6000803e3d6000fd5b505050506040513d601f19601f820116820180604052508101906108ed919061232e565b6108fe565b816001600160a01b0316315b61018082015260208101516109129061108d565b6101a082015260408101516109269061108d565b816101c001818152505080600001516001600160a01b03166318160ddd6040518163ffffffff1660e01b8152600401602060405180830381865afa158015610972573d6000803e3d6000fd5b505050506040513d601f19601f82011682018060405250810190610996919061232e565b6101e082015280516040516370a0823160e01b81526001600160a01b038481166004830152909116906370a0823190602401602060405180830381865afa1580156109e5573d6000803e3d6000fd5b505050506040513d601f19601f82011682018060405250810190610a09919061232e565b61020082015292915050565b670de0b6b3a764000060015b8251811015610d8257600073adc632cf7d62ceef5cea6369b49684e835f62f366001600160a01b031663e6a4390585600081518110610a6257610a62612347565b602002602001015186600181518110610a7d57610a7d612347565b60200260200101516040518363ffffffff1660e01b8152600401610ab79291906001600160a01b0392831681529116602082015260400190565b602060405180830381865afa158015610ad4573d6000803e3d6000fd5b505050506040513d601f19601f82011682018060405250810190610af891906121ef565b9050600080826001600160a01b0316630902f1ac6040518163ffffffff1660e01b8152600401606060405180830381865afa158015610b3b573d6000803e3d6000fd5b505050506040513d601f19601f82011682018060405250810190610b5f91906122de565b506001600160701b031691506001600160701b03169150600086600181518110610b8b57610b8b612347565b60200260200101516001600160a01b031687600081518110610baf57610baf612347565b60200260200101516001600160a01b031610610bcb5781610bcd565b825b9050600087600181518110610be457610be4612347565b60200260200101516001600160a01b031688600081518110610c0857610c08612347565b60200260200101516001600160a01b031611610c245782610c26565b835b9050600088600081518110610c3d57610c3d612347565b60200260200101516001600160a01b031663313ce5676040518163ffffffff1660e01b8152600401602060405180830381865afa158015610c82573d6000803e3d6000fd5b505050506040513d601f19601f82011682018060405250810190610ca6919061229f565b60ff169050600089600181518110610cc057610cc0612347565b60200260200101516001600160a01b031663313ce5676040518163ffffffff1660e01b8152600401602060405180830381865afa158015610d05573d6000803e3d6000fd5b505050506040513d601f19601f82011682018060405250810190610d29919061229f565b60ff169050610d3981600a612451565b84610d4584600a612451565b610d4f868d61245d565b610d59919061245d565b610d639190612474565b610d6d9190612474565b98505060019096019550610a21945050505050565b50919050565b60608082516001600160401b03811115610da457610da4611c82565b604051908082528060200260200182016040528015610dcd578160200160208202803683370190505b50915082516001600160401b03811115610de957610de9611c82565b604051908082528060200260200182016040528015610e12578160200160208202803683370190505b50905060005b8351811015610f3f576000848281518110610e3557610e35612347565b60200260200101519050600073e745f43775b760958cd34ee83b3ab0c088f746306001600160a01b031663d06ca61f88846040518363ffffffff1660e01b8152600401610e83929190612496565b600060405180830381865afa158015610ea0573d6000803e3d6000fd5b505050506040513d6000823e601f3d908101601f19168201604052610ec891908101906124ef565b90508060018251610ed9919061257f565b81518110610ee957610ee9612347565b6020026020010151858481518110610f0357610f03612347565b602002602001018181525050610f1882610a15565b848481518110610f2a57610f2a612347565b60209081029190910101525050600101610e18565b509250929050565b606082516001600160401b03811115610f6257610f62611c82565b604051908082528060200260200182016040528015610f8b578160200160208202803683370190505b50905060005b8351811015611086576000848281518110610fae57610fae612347565b60200260200101519050806001600160a01b031673bd51800607e7c743a0e9b0d89d837058f4f427566001600160a01b031614611054576040516370a0823160e01b81526001600160a01b0385811660048301528216906370a0823190602401602060405180830381865afa15801561102b573d6000803e3d6000fd5b505050506040513d601f19601f8201168201806040525081019061104f919061232e565b611060565b836001600160a01b0316315b83838151811061107257611072612347565b602090810291909101015250600101610f91565b5092915050565b6000737afb87ae9e37c365955012527f8a9039d6f2ca2f196001600160a01b038316016110c35750670de0b6b3a7640000919050565b60405163e6a4390560e01b81526001600160a01b0383166004820152737afb87ae9e37c365955012527f8a9039d6f2ca30602482015260009073adc632cf7d62ceef5cea6369b49684e835f62f369063e6a4390590604401602060405180830381865afa158015611138573d6000803e3d6000fd5b505050506040513d601f19601f8201168201806040525081019061115c91906121ef565b90506000836001600160a01b031663313ce5676040518163ffffffff1660e01b8152600401602060405180830381865afa15801561119e573d6000803e3d6000fd5b505050506040513d601f19601f820116820180604052508101906111c2919061229f565b60ff169050600080836001600160a01b0316630902f1ac6040518163ffffffff1660e01b8152600401606060405180830381865afa158015611208573d6000803e3d6000fd5b505050506040513d601f19601f8201168201806040525081019061122c91906122de565b506001600160701b039182169350169050737afb87ae9e37c365955012527f8a9039d6f2ca306001600160a01b03871610156112a1578161126e84601261257f565b61127990600a612451565b611283908361245d565b61129090620f424061245d565b61129a9190612474565b94506112d3565b806112ad84600a612451565b6112bc8464e8d4a5100061245d565b6112c6919061245d565b6112d09190612474565b94505b50505050919050565b6112e4611a20565b604051631e3dd18b60e01b81526004810183905273adc632cf7d62ceef5cea6369b49684e835f62f3690631e3dd18b90602401602060405180830381865afa158015611334573d6000803e3d6000fd5b505050506040513d601f19601f8201168201806040525081019061135891906121ef565b6001600160a01b031680825260408051630dfe168160e01b81529051630dfe1681916004808201926020929091908290030181865afa15801561139f573d6000803e3d6000fd5b505050506040513d601f19601f820116820180604052508101906113c391906121ef565b81602001906001600160a01b031690816001600160a01b03168152505080600001516001600160a01b031663d21220a76040518163ffffffff1660e01b8152600401602060405180830381865afa158015611422573d6000803e3d6000fd5b505050506040513d601f19601f8201168201806040525081019061144691906121ef565b81604001906001600160a01b031690816001600160a01b03168152505080602001516001600160a01b03166306fdde036040518163ffffffff1660e01b8152600401600060405180830381865afa1580156114a5573d6000803e3d6000fd5b505050506040513d6000823e601f3d908101601f191682016040526114cd919081019061220c565b816060018190525080604001516001600160a01b03166306fdde036040518163ffffffff1660e01b8152600401600060405180830381865afa158015611517573d6000803e3d6000fd5b505050506040513d6000823e601f3d908101601f1916820160405261153f919081019061220c565b816080018190525080602001516001600160a01b03166395d89b416040518163ffffffff1660e01b8152600401600060405180830381865afa158015611589573d6000803e3d6000fd5b505050506040513d6000823e601f3d908101601f191682016040526115b1919081019061220c565b8160a0018190525080604001516001600160a01b03166395d89b416040518163ffffffff1660e01b8152600401600060405180830381865afa1580156115fb573d6000803e3d6000fd5b505050506040513d6000823e601f3d908101601f19168201604052611623919081019061220c565b8160c0018190525080602001516001600160a01b031663313ce5676040518163ffffffff1660e01b8152600401602060405180830381865afa15801561166d573d6000803e3d6000fd5b505050506040513d601f19601f82011682018060405250810190611691919061229f565b60ff168160e001818152505080604001516001600160a01b031663313ce5676040518163ffffffff1660e01b8152600401602060405180830381865afa1580156116df573d6000803e3d6000fd5b505050506040513d601f19601f82011682018060405250810190611703919061229f565b60ff168161010001818152505080600001516001600160a01b0316630902f1ac6040518163ffffffff1660e01b8152600401606060405180830381865afa158015611752573d6000803e3d6000fd5b505050506040513d601f19601f8201168201806040525081019061177691906122de565b506001600160701b0390811661014084015216610120820152602081015161179d9061108d565b61016082015260408101516117b19061108d565b8161018001818152505080600001516001600160a01b03166318160ddd6040518163ffffffff1660e01b8152600401602060405180830381865afa1580156117fd573d6000803e3d6000fd5b505050506040513d601f19601f82011682018060405250810190611821919061232e565b6101a0820152919050565b606082516001600160401b0381111561184757611847611c82565b60405190808252806020026020018201604052801561188057816020015b61186d611981565b8152602001906001900390816118655790505b50905060005b8351811015611086576118b28482815181106118a4576118a4612347565b6020026020010151846102f3565b8282815181106118c4576118c4612347565b6020908102919091010152600101611886565b606081516001600160401b038111156118f2576118f2611c82565b60405190808252806020026020018201604052801561192b57816020015b611918611a20565b8152602001906001900390816119105790505b50905060005b8251811015610d825761195c83828151811061194f5761194f612347565b60200260200101516112dc565b82828151811061196e5761196e612347565b6020908102919091010152600101611931565b60405180610220016040528060006001600160a01b0316815260200160006001600160a01b0316815260200160006001600160a01b0316815260200160608152602001606081526020016060815260200160608152602001600081526020016000815260200160008152602001600081526020016000815260200160008152602001600081526020016000815260200160008152602001600081525090565b604051806101c0016040528060006001600160a01b0316815260200160006001600160a01b0316815260200160006001600160a01b0316815260200160608152602001606081526020016060815260200160608152602001600081526020016000815260200160008152602001600081526020016000815260200160008152602001600081525090565b6001600160a01b0381168114611abf57600080fd5b50565b60008060408385031215611ad557600080fd5b823591506020830135611ae781611aaa565b809150509250929050565b60005b83811015611b0d578181015183820152602001611af5565b50506000910152565b60008151808452611b2e816020860160208601611af2565b601f01601f19169290920160200192915050565b80516001600160a01b0316825260006102206020830151611b6e60208601826001600160a01b03169052565b506040830151611b8960408601826001600160a01b03169052565b506060830151816060860152611ba182860182611b16565b91505060808301518482036080860152611bbb8282611b16565b91505060a083015184820360a0860152611bd58282611b16565b91505060c083015184820360c0860152611bef8282611b16565b60e08581015190870152610100808601519087015261012080860151908701526101408086015190870152610160808601519087015261018080860151908701526101a080860151908701526101c080860151908701526101e08086015190870152610200948501519490950193909352509192915050565b602081526000611c7b6020830184611b42565b9392505050565b634e487b7160e01b600052604160045260246000fd5b604051601f8201601f191681016001600160401b0381118282101715611cc057611cc0611c82565b604052919050565b60006001600160401b03821115611ce157611ce1611c82565b5060051b60200190565b600082601f830112611cfc57600080fd5b81356020611d11611d0c83611cc8565b611c98565b8083825260208201915060208460051b870101935086841115611d3357600080fd5b602086015b84811015611d58578035611d4b81611aaa565b8352918301918301611d38565b509695505050505050565b600060208284031215611d7557600080fd5b81356001600160401b03811115611d8b57600080fd5b611d9784828501611ceb565b949350505050565b60008060408385031215611db257600080fd5b823591506020808401356001600160401b0380821115611dd157600080fd5b818601915086601f830112611de557600080fd5b8135611df3611d0c82611cc8565b81815260059190911b83018401908481019089831115611e1257600080fd5b8585015b83811015611e4a57803585811115611e2e5760008081fd5b611e3c8c89838a0101611ceb565b845250918601918601611e16565b508096505050505050509250929050565b60008151808452602080850194506020840160005b83811015611e8c57815187529582019590820190600101611e70565b509495945050505050565b604081526000611eaa6040830185611e5b565b8281036020840152611ebc8185611e5b565b95945050505050565b60008060408385031215611ed857600080fd5b82356001600160401b03811115611eee57600080fd5b611efa85828601611ceb565b9250506020830135611ae781611aaa565b602081526000611c7b6020830184611e5b565b600060208284031215611f3057600080fd5b8135611c7b81611aaa565b600060208284031215611f4d57600080fd5b5035919050565b80516001600160a01b0316825260006101c06020830151611f8060208601826001600160a01b03169052565b506040830151611f9b60408601826001600160a01b03169052565b506060830151816060860152611fb382860182611b16565b91505060808301518482036080860152611fcd8282611b16565b91505060a083015184820360a0860152611fe78282611b16565b91505060c083015184820360c08601526120018282611b16565b60e08581015190870152610100808601519087015261012080860151908701526101408086015190870152610160808601519087015261018080860151908701526101a0948501519490950193909352509192915050565b602081526000611c7b6020830184611f54565b600082601f83011261207d57600080fd5b8135602061208d611d0c83611cc8565b8083825260208201915060208460051b8701019350868411156120af57600080fd5b602086015b84811015611d5857803583529183019183016120b4565b600080604083850312156120de57600080fd5b82356001600160401b038111156120f457600080fd5b611efa8582860161206c565b600060208083016020845280855180835260408601915060408160051b87010192506020870160005b8281101561215757603f19888603018452612145858351611b42565b94509285019290850190600101612129565b5092979650505050505050565b60006020828403121561217657600080fd5b81356001600160401b0381111561218c57600080fd5b611d978482850161206c565b600060208083016020845280855180835260408601915060408160051b87010192506020870160005b8281101561215757603f198886030184526121dd858351611f54565b945092850192908501906001016121c1565b60006020828403121561220157600080fd5b8151611c7b81611aaa565b60006020828403121561221e57600080fd5b81516001600160401b038082111561223557600080fd5b818401915084601f83011261224957600080fd5b81518181111561225b5761225b611c82565b61226e601f8201601f1916602001611c98565b915080825285602082850101111561228557600080fd5b612296816020840160208601611af2565b50949350505050565b6000602082840312156122b157600080fd5b815160ff81168114611c7b57600080fd5b80516001600160701b03811681146122d957600080fd5b919050565b6000806000606084860312156122f357600080fd5b6122fc846122c2565b925061230a602085016122c2565b9150604084015163ffffffff8116811461232357600080fd5b809150509250925092565b60006020828403121561234057600080fd5b5051919050565b634e487b7160e01b600052603260045260246000fd5b634e487b7160e01b600052601160045260246000fd5b600181815b80851115610f3f5781600019048211156123945761239461235d565b808516156123a157918102915b93841c9390800290612378565b6000826123bd5750600161244b565b816123ca5750600061244b565b81600181146123e057600281146123ea57612406565b600191505061244b565b60ff8411156123fb576123fb61235d565b50506001821b61244b565b5060208310610133831016604e8410600b8410161715612429575081810a61244b565b6124338383612373565b80600019048211156124475761244761235d565b0290505b92915050565b6000611c7b83836123ae565b808202811582820484141761244b5761244b61235d565b60008261249157634e487b7160e01b600052601260045260246000fd5b500490565b60006040820184835260206040602085015281855180845260608601915060208701935060005b818110156124e25784516001600160a01b0316835293830193918301916001016124bd565b5090979650505050505050565b6000602080838503121561250257600080fd5b82516001600160401b0381111561251857600080fd5b8301601f8101851361252957600080fd5b8051612537611d0c82611cc8565b81815260059190911b8201830190838101908783111561255657600080fd5b928401925b828410156125745783518252928401929084019061255b565b979650505050505050565b8181038181111561244b5761244b61235d56fea2646970667358221220a73505f7d313a71152ddc137a0dfcbfc07a90bc5f95f79f960d1ea7876947a0764736f6c63430008180033",
  "linkReferences": {},
  "deployedLinkReferences": {}
}