{
    "_format": "hh-sol-artifact-1",
    "contractName": "EduswapV2View",
    "sourceName": "contracts/view/EduswapV2View.sol",
    "abi": [
        {
            "inputs": [],
            "name": "ARB",
            "outputs": [
                {
                    "internalType": "address",
                    "name": "",
                    "type": "address"
                }
            ],
            "stateMutability": "view",
            "type": "function"
        },
        {
            "inputs": [],
            "name": "BTC",
            "outputs": [
                {
                    "internalType": "address",
                    "name": "",
                    "type": "address"
                }
            ],
            "stateMutability": "view",
            "type": "function"
        },
        {
            "inputs": [],
            "name": "EDUSWAP",
            "outputs": [
                {
                    "internalType": "address",
                    "name": "",
                    "type": "address"
                }
            ],
            "stateMutability": "view",
            "type": "function"
        },
        {
            "inputs": [],
            "name": "ETH",
            "outputs": [
                {
                    "internalType": "address",
                    "name": "",
                    "type": "address"
                }
            ],
            "stateMutability": "view",
            "type": "function"
        },
        {
            "inputs": [],
            "name": "USDC",
            "outputs": [
                {
                    "internalType": "address",
                    "name": "",
                    "type": "address"
                }
            ],
            "stateMutability": "view",
            "type": "function"
        },
        {
            "inputs": [],
            "name": "WEDU",
            "outputs": [
                {
                    "internalType": "address",
                    "name": "",
                    "type": "address"
                }
            ],
            "stateMutability": "view",
            "type": "function"
        },
        {
            "inputs": [],
            "name": "factory",
            "outputs": [
                {
                    "internalType": "address",
                    "name": "",
                    "type": "address"
                }
            ],
            "stateMutability": "view",
            "type": "function"
        },
        {
            "inputs": [
                {
                    "internalType": "uint256",
                    "name": "poolId",
                    "type": "uint256"
                },
                {
                    "internalType": "address",
                    "name": "user",
                    "type": "address"
                }
            ],
            "name": "getMyPoolData",
            "outputs": [
                {
                    "components": [
                        {
                            "internalType": "address",
                            "name": "pair",
                            "type": "address"
                        },
                        {
                            "internalType": "address",
                            "name": "token0",
                            "type": "address"
                        },
                        {
                            "internalType": "address",
                            "name": "token1",
                            "type": "address"
                        },
                        {
                            "internalType": "string",
                            "name": "name0",
                            "type": "string"
                        },
                        {
                            "internalType": "string",
                            "name": "name1",
                            "type": "string"
                        },
                        {
                            "internalType": "string",
                            "name": "symbol0",
                            "type": "string"
                        },
                        {
                            "internalType": "string",
                            "name": "symbol1",
                            "type": "string"
                        },
                        {
                            "internalType": "uint256",
                            "name": "decimals0",
                            "type": "uint256"
                        },
                        {
                            "internalType": "uint256",
                            "name": "decimals1",
                            "type": "uint256"
                        },
                        {
                            "internalType": "uint256",
                            "name": "reserve0",
                            "type": "uint256"
                        },
                        {
                            "internalType": "uint256",
                            "name": "reserve1",
                            "type": "uint256"
                        },
                        {
                            "internalType": "uint256",
                            "name": "balance0",
                            "type": "uint256"
                        },
                        {
                            "internalType": "uint256",
                            "name": "balance1",
                            "type": "uint256"
                        },
                        {
                            "internalType": "uint256",
                            "name": "price0",
                            "type": "uint256"
                        },
                        {
                            "internalType": "uint256",
                            "name": "price1",
                            "type": "uint256"
                        },
                        {
                            "internalType": "uint256",
                            "name": "supply",
                            "type": "uint256"
                        },
                        {
                            "internalType": "uint256",
                            "name": "mysupply",
                            "type": "uint256"
                        }
                    ],
                    "internalType": "struct EduswapV2View.MyPoolData",
                    "name": "data",
                    "type": "tuple"
                }
            ],
            "stateMutability": "view",
            "type": "function"
        },
        {
            "inputs": [
                {
                    "internalType": "uint256[]",
                    "name": "poolIds",
                    "type": "uint256[]"
                },
                {
                    "internalType": "address",
                    "name": "user",
                    "type": "address"
                }
            ],
            "name": "getMyPoolDatas",
            "outputs": [
                {
                    "components": [
                        {
                            "internalType": "address",
                            "name": "pair",
                            "type": "address"
                        },
                        {
                            "internalType": "address",
                            "name": "token0",
                            "type": "address"
                        },
                        {
                            "internalType": "address",
                            "name": "token1",
                            "type": "address"
                        },
                        {
                            "internalType": "string",
                            "name": "name0",
                            "type": "string"
                        },
                        {
                            "internalType": "string",
                            "name": "name1",
                            "type": "string"
                        },
                        {
                            "internalType": "string",
                            "name": "symbol0",
                            "type": "string"
                        },
                        {
                            "internalType": "string",
                            "name": "symbol1",
                            "type": "string"
                        },
                        {
                            "internalType": "uint256",
                            "name": "decimals0",
                            "type": "uint256"
                        },
                        {
                            "internalType": "uint256",
                            "name": "decimals1",
                            "type": "uint256"
                        },
                        {
                            "internalType": "uint256",
                            "name": "reserve0",
                            "type": "uint256"
                        },
                        {
                            "internalType": "uint256",
                            "name": "reserve1",
                            "type": "uint256"
                        },
                        {
                            "internalType": "uint256",
                            "name": "balance0",
                            "type": "uint256"
                        },
                        {
                            "internalType": "uint256",
                            "name": "balance1",
                            "type": "uint256"
                        },
                        {
                            "internalType": "uint256",
                            "name": "price0",
                            "type": "uint256"
                        },
                        {
                            "internalType": "uint256",
                            "name": "price1",
                            "type": "uint256"
                        },
                        {
                            "internalType": "uint256",
                            "name": "supply",
                            "type": "uint256"
                        },
                        {
                            "internalType": "uint256",
                            "name": "mysupply",
                            "type": "uint256"
                        }
                    ],
                    "internalType": "struct EduswapV2View.MyPoolData[]",
                    "name": "datas",
                    "type": "tuple[]"
                }
            ],
            "stateMutability": "view",
            "type": "function"
        },
        {
            "inputs": [
                {
                    "internalType": "uint256",
                    "name": "poolId",
                    "type": "uint256"
                }
            ],
            "name": "getPoolData",
            "outputs": [
                {
                    "components": [
                        {
                            "internalType": "address",
                            "name": "pair",
                            "type": "address"
                        },
                        {
                            "internalType": "address",
                            "name": "token0",
                            "type": "address"
                        },
                        {
                            "internalType": "address",
                            "name": "token1",
                            "type": "address"
                        },
                        {
                            "internalType": "string",
                            "name": "name0",
                            "type": "string"
                        },
                        {
                            "internalType": "string",
                            "name": "name1",
                            "type": "string"
                        },
                        {
                            "internalType": "string",
                            "name": "symbol0",
                            "type": "string"
                        },
                        {
                            "internalType": "string",
                            "name": "symbol1",
                            "type": "string"
                        },
                        {
                            "internalType": "uint256",
                            "name": "decimals0",
                            "type": "uint256"
                        },
                        {
                            "internalType": "uint256",
                            "name": "decimals1",
                            "type": "uint256"
                        },
                        {
                            "internalType": "uint256",
                            "name": "reserve0",
                            "type": "uint256"
                        },
                        {
                            "internalType": "uint256",
                            "name": "reserve1",
                            "type": "uint256"
                        },
                        {
                            "internalType": "uint256",
                            "name": "price0",
                            "type": "uint256"
                        },
                        {
                            "internalType": "uint256",
                            "name": "price1",
                            "type": "uint256"
                        },
                        {
                            "internalType": "uint256",
                            "name": "supply",
                            "type": "uint256"
                        }
                    ],
                    "internalType": "struct EduswapV2View.PoolData",
                    "name": "data",
                    "type": "tuple"
                }
            ],
            "stateMutability": "view",
            "type": "function"
        },
        {
            "inputs": [
                {
                    "internalType": "uint256[]",
                    "name": "poolIds",
                    "type": "uint256[]"
                }
            ],
            "name": "getPoolDatas",
            "outputs": [
                {
                    "components": [
                        {
                            "internalType": "address",
                            "name": "pair",
                            "type": "address"
                        },
                        {
                            "internalType": "address",
                            "name": "token0",
                            "type": "address"
                        },
                        {
                            "internalType": "address",
                            "name": "token1",
                            "type": "address"
                        },
                        {
                            "internalType": "string",
                            "name": "name0",
                            "type": "string"
                        },
                        {
                            "internalType": "string",
                            "name": "name1",
                            "type": "string"
                        },
                        {
                            "internalType": "string",
                            "name": "symbol0",
                            "type": "string"
                        },
                        {
                            "internalType": "string",
                            "name": "symbol1",
                            "type": "string"
                        },
                        {
                            "internalType": "uint256",
                            "name": "decimals0",
                            "type": "uint256"
                        },
                        {
                            "internalType": "uint256",
                            "name": "decimals1",
                            "type": "uint256"
                        },
                        {
                            "internalType": "uint256",
                            "name": "reserve0",
                            "type": "uint256"
                        },
                        {
                            "internalType": "uint256",
                            "name": "reserve1",
                            "type": "uint256"
                        },
                        {
                            "internalType": "uint256",
                            "name": "price0",
                            "type": "uint256"
                        },
                        {
                            "internalType": "uint256",
                            "name": "price1",
                            "type": "uint256"
                        },
                        {
                            "internalType": "uint256",
                            "name": "supply",
                            "type": "uint256"
                        }
                    ],
                    "internalType": "struct EduswapV2View.PoolData[]",
                    "name": "datas",
                    "type": "tuple[]"
                }
            ],
            "stateMutability": "view",
            "type": "function"
        },
        {
            "inputs": [
                {
                    "internalType": "address[]",
                    "name": "tokens",
                    "type": "address[]"
                },
                {
                    "internalType": "address",
                    "name": "user",
                    "type": "address"
                }
            ],
            "name": "getTokenBalances",
            "outputs": [
                {
                    "internalType": "uint256[]",
                    "name": "balances",
                    "type": "uint256[]"
                }
            ],
            "stateMutability": "view",
            "type": "function"
        },
        {
            "inputs": [
                {
                    "internalType": "address",
                    "name": "token",
                    "type": "address"
                }
            ],
            "name": "getTokenPrice",
            "outputs": [
                {
                    "internalType": "uint256",
                    "name": "price",
                    "type": "uint256"
                }
            ],
            "stateMutability": "view",
            "type": "function"
        }
    ],
    "bytecode": "0x608060405234801561001057600080fd5b50611e38806100206000396000f3fe608060405234801561001057600080fd5b50600436106100cf5760003560e01c8063c02c7c131161008c578063d02641a011610066578063d02641a0146101f2578063d21c87ad14610213578063eac6db7914610233578063ee5c69761461025357600080fd5b8063c02c7c131461019c578063c3fae362146101b7578063c45a0155146101d757600080fd5b806316a3078d146100d45780632792949d146100fd57806364a285fd146101305780637d7cf6c51461014b5780638322fff21461016657806389a3027114610181575b600080fd5b6100e76100e2366004611529565b610273565b6040516100f491906116cf565b60405180910390f35b61011873324e4d9afbee1b5ca0c0f37e7b771a18094b39a681565b6040516001600160a01b0390911681526020016100f4565b610118733fba3ef10e452d1e8cc6c0cf552a8a25b572ec4181565b61011873bd51800607e7c743a0e9b0d89d837058f4f4275681565b6101187390f2f4e97eb6b62d9049d07c6f6877fd171a9a0f81565b610118737afb87ae9e37c365955012527f8a9039d6f2ca3081565b61011873104a0f99728d5a79dbebb4a0a58eccb456e8241181565b6101ca6101c5366004611754565b610995565b6040516100f49190611805565b61011873adc632cf7d62ceef5cea6369b49684e835f62f3681565b610205610200366004611849565b610adc565b6040519081526020016100f4565b610226610221366004611866565b610d2b565b6040516100f49190611984565b610246610241366004611a01565b61127b565b6040516100f49190611a48565b610266610261366004611aac565b611327565b6040516100f49190611ae9565b61027b6113d8565b604051631e3dd18b60e01b81526004810184905273adc632cf7d62ceef5cea6369b49684e835f62f3690631e3dd18b90602401602060405180830381865afa1580156102cb573d6000803e3d6000fd5b505050506040513d601f19601f820116820180604052508101906102ef9190611b40565b6001600160a01b031680825260408051630dfe168160e01b81529051630dfe1681916004808201926020929091908290030181865afa158015610336573d6000803e3d6000fd5b505050506040513d601f19601f8201168201806040525081019061035a9190611b40565b81602001906001600160a01b031690816001600160a01b03168152505080600001516001600160a01b031663d21220a76040518163ffffffff1660e01b8152600401602060405180830381865afa1580156103b9573d6000803e3d6000fd5b505050506040513d601f19601f820116820180604052508101906103dd9190611b40565b81604001906001600160a01b031690816001600160a01b03168152505080602001516001600160a01b03166306fdde036040518163ffffffff1660e01b8152600401600060405180830381865afa15801561043c573d6000803e3d6000fd5b505050506040513d6000823e601f3d908101601f191682016040526104649190810190611b5d565b816060018190525080604001516001600160a01b03166306fdde036040518163ffffffff1660e01b8152600401600060405180830381865afa1580156104ae573d6000803e3d6000fd5b505050506040513d6000823e601f3d908101601f191682016040526104d69190810190611b5d565b816080018190525080602001516001600160a01b03166395d89b416040518163ffffffff1660e01b8152600401600060405180830381865afa158015610520573d6000803e3d6000fd5b505050506040513d6000823e601f3d908101601f191682016040526105489190810190611b5d565b8160a0018190525080604001516001600160a01b03166395d89b416040518163ffffffff1660e01b8152600401600060405180830381865afa158015610592573d6000803e3d6000fd5b505050506040513d6000823e601f3d908101601f191682016040526105ba9190810190611b5d565b8160c0018190525080602001516001600160a01b031663313ce5676040518163ffffffff1660e01b8152600401602060405180830381865afa158015610604573d6000803e3d6000fd5b505050506040513d601f19601f820116820180604052508101906106289190611bf1565b60ff168160e001818152505080604001516001600160a01b031663313ce5676040518163ffffffff1660e01b8152600401602060405180830381865afa158015610676573d6000803e3d6000fd5b505050506040513d601f19601f8201168201806040525081019061069a9190611bf1565b60ff168161010001818152505080600001516001600160a01b0316630902f1ac6040518163ffffffff1660e01b8152600401606060405180830381865afa1580156106e9573d6000803e3d6000fd5b505050506040513d601f19601f8201168201806040525081019061070d9190611c2b565b506001600160701b039081166101408401521661012082015260208101516001600160a01b031673bd51800607e7c743a0e9b0d89d837058f4f42756146107c35760208101516040516370a0823160e01b81526001600160a01b038481166004830152909116906370a0823190602401602060405180830381865afa15801561079a573d6000803e3d6000fd5b505050506040513d601f19601f820116820180604052508101906107be9190611c7b565b6107cf565b816001600160a01b0316315b61016082015260408101516001600160a01b031673bd51800607e7c743a0e9b0d89d837058f4f42756146108725760408082015190516370a0823160e01b81526001600160a01b038481166004830152909116906370a0823190602401602060405180830381865afa158015610849573d6000803e3d6000fd5b505050506040513d601f19601f8201168201806040525081019061086d9190611c7b565b61087e565b816001600160a01b0316315b610180820152602081015161089290610adc565b6101a082015260408101516108a690610adc565b816101c001818152505080600001516001600160a01b03166318160ddd6040518163ffffffff1660e01b8152600401602060405180830381865afa1580156108f2573d6000803e3d6000fd5b505050506040513d601f19601f820116820180604052508101906109169190611c7b565b6101e082015280516040516370a0823160e01b81526001600160a01b038481166004830152909116906370a0823190602401602060405180830381865afa158015610965573d6000803e3d6000fd5b505050506040513d601f19601f820116820180604052508101906109899190611c7b565b61020082015292915050565b6060825167ffffffffffffffff8111156109b1576109b16116e9565b6040519080825280602002602001820160405280156109da578160200160208202803683370190505b50905060005b8351811015610ad55760008482815181106109fd576109fd611c94565b60200260200101519050806001600160a01b031673bd51800607e7c743a0e9b0d89d837058f4f427566001600160a01b031614610aa3576040516370a0823160e01b81526001600160a01b0385811660048301528216906370a0823190602401602060405180830381865afa158015610a7a573d6000803e3d6000fd5b505050506040513d601f19601f82011682018060405250810190610a9e9190611c7b565b610aaf565b836001600160a01b0316315b838381518110610ac157610ac1611c94565b6020908102919091010152506001016109e0565b5092915050565b6000737afb87ae9e37c365955012527f8a9039d6f2ca2f196001600160a01b03831601610b125750670de0b6b3a7640000919050565b60405163e6a4390560e01b81526001600160a01b0383166004820152737afb87ae9e37c365955012527f8a9039d6f2ca30602482015260009073adc632cf7d62ceef5cea6369b49684e835f62f369063e6a4390590604401602060405180830381865afa158015610b87573d6000803e3d6000fd5b505050506040513d601f19601f82011682018060405250810190610bab9190611b40565b90506000836001600160a01b031663313ce5676040518163ffffffff1660e01b8152600401602060405180830381865afa158015610bed573d6000803e3d6000fd5b505050506040513d601f19601f82011682018060405250810190610c119190611bf1565b60ff169050600080836001600160a01b0316630902f1ac6040518163ffffffff1660e01b8152600401606060405180830381865afa158015610c57573d6000803e3d6000fd5b505050506040513d601f19601f82011682018060405250810190610c7b9190611c2b565b506001600160701b039182169350169050737afb87ae9e37c365955012527f8a9039d6f2ca306001600160a01b0387161015610cf05781610cbd846012611cc0565b610cc890600a611dbd565b610cd29083611dc9565b610cdf90620f4240611dc9565b610ce99190611de0565b9450610d22565b80610cfc84600a611dbd565b610d0b8464e8d4a51000611dc9565b610d159190611dc9565b610d1f9190611de0565b94505b50505050919050565b610d33611477565b604051631e3dd18b60e01b81526004810183905273adc632cf7d62ceef5cea6369b49684e835f62f3690631e3dd18b90602401602060405180830381865afa158015610d83573d6000803e3d6000fd5b505050506040513d601f19601f82011682018060405250810190610da79190611b40565b6001600160a01b031680825260408051630dfe168160e01b81529051630dfe1681916004808201926020929091908290030181865afa158015610dee573d6000803e3d6000fd5b505050506040513d601f19601f82011682018060405250810190610e129190611b40565b81602001906001600160a01b031690816001600160a01b03168152505080600001516001600160a01b031663d21220a76040518163ffffffff1660e01b8152600401602060405180830381865afa158015610e71573d6000803e3d6000fd5b505050506040513d601f19601f82011682018060405250810190610e959190611b40565b81604001906001600160a01b031690816001600160a01b03168152505080602001516001600160a01b03166306fdde036040518163ffffffff1660e01b8152600401600060405180830381865afa158015610ef4573d6000803e3d6000fd5b505050506040513d6000823e601f3d908101601f19168201604052610f1c9190810190611b5d565b816060018190525080604001516001600160a01b03166306fdde036040518163ffffffff1660e01b8152600401600060405180830381865afa158015610f66573d6000803e3d6000fd5b505050506040513d6000823e601f3d908101601f19168201604052610f8e9190810190611b5d565b816080018190525080602001516001600160a01b03166395d89b416040518163ffffffff1660e01b8152600401600060405180830381865afa158015610fd8573d6000803e3d6000fd5b505050506040513d6000823e601f3d908101601f191682016040526110009190810190611b5d565b8160a0018190525080604001516001600160a01b03166395d89b416040518163ffffffff1660e01b8152600401600060405180830381865afa15801561104a573d6000803e3d6000fd5b505050506040513d6000823e601f3d908101601f191682016040526110729190810190611b5d565b8160c0018190525080602001516001600160a01b031663313ce5676040518163ffffffff1660e01b8152600401602060405180830381865afa1580156110bc573d6000803e3d6000fd5b505050506040513d601f19601f820116820180604052508101906110e09190611bf1565b60ff168160e001818152505080604001516001600160a01b031663313ce5676040518163ffffffff1660e01b8152600401602060405180830381865afa15801561112e573d6000803e3d6000fd5b505050506040513d601f19601f820116820180604052508101906111529190611bf1565b60ff168161010001818152505080600001516001600160a01b0316630902f1ac6040518163ffffffff1660e01b8152600401606060405180830381865afa1580156111a1573d6000803e3d6000fd5b505050506040513d601f19601f820116820180604052508101906111c59190611c2b565b506001600160701b039081166101408401521661012082015260208101516111ec90610adc565b610160820152604081015161120090610adc565b8161018001818152505080600001516001600160a01b03166318160ddd6040518163ffffffff1660e01b8152600401602060405180830381865afa15801561124c573d6000803e3d6000fd5b505050506040513d601f19601f820116820180604052508101906112709190611c7b565b6101a0820152919050565b6060825167ffffffffffffffff811115611297576112976116e9565b6040519080825280602002602001820160405280156112d057816020015b6112bd6113d8565b8152602001906001900390816112b55790505b50905060005b8351811015610ad5576113028482815181106112f4576112f4611c94565b602002602001015184610273565b82828151811061131457611314611c94565b60209081029190910101526001016112d6565b6060815167ffffffffffffffff811115611343576113436116e9565b60405190808252806020026020018201604052801561137c57816020015b611369611477565b8152602001906001900390816113615790505b50905060005b82518110156113d2576113ad8382815181106113a0576113a0611c94565b6020026020010151610d2b565b8282815181106113bf576113bf611c94565b6020908102919091010152600101611382565b50919050565b60405180610220016040528060006001600160a01b0316815260200160006001600160a01b0316815260200160006001600160a01b0316815260200160608152602001606081526020016060815260200160608152602001600081526020016000815260200160008152602001600081526020016000815260200160008152602001600081526020016000815260200160008152602001600081525090565b604051806101c0016040528060006001600160a01b0316815260200160006001600160a01b0316815260200160006001600160a01b0316815260200160608152602001606081526020016060815260200160608152602001600081526020016000815260200160008152602001600081526020016000815260200160008152602001600081525090565b6001600160a01b038116811461151657600080fd5b50565b803561152481611501565b919050565b6000806040838503121561153c57600080fd5b82359150602083013561154e81611501565b809150509250929050565b60005b8381101561157457818101518382015260200161155c565b50506000910152565b60008151808452611595816020860160208601611559565b601f01601f19169290920160200192915050565b80516001600160a01b03168252600061022060208301516115d560208601826001600160a01b03169052565b5060408301516115f060408601826001600160a01b03169052565b5060608301518160608601526116088286018261157d565b91505060808301518482036080860152611622828261157d565b91505060a083015184820360a086015261163c828261157d565b91505060c083015184820360c0860152611656828261157d565b60e08581015190870152610100808601519087015261012080860151908701526101408086015190870152610160808601519087015261018080860151908701526101a080860151908701526101c080860151908701526101e08086015190870152610200948501519490950193909352509192915050565b6020815260006116e260208301846115a9565b9392505050565b634e487b7160e01b600052604160045260246000fd5b604051601f8201601f1916810167ffffffffffffffff81118282101715611728576117286116e9565b604052919050565b600067ffffffffffffffff82111561174a5761174a6116e9565b5060051b60200190565b6000806040838503121561176757600080fd5b823567ffffffffffffffff81111561177e57600080fd5b8301601f8101851361178f57600080fd5b803560206117a461179f83611730565b6116ff565b82815260059290921b830181019181810190888411156117c357600080fd5b938201935b838510156117ea5784356117db81611501565b825293820193908201906117c8565b95506117f99050868201611519565b93505050509250929050565b6020808252825182820181905260009190848201906040850190845b8181101561183d57835183529284019291840191600101611821565b50909695505050505050565b60006020828403121561185b57600080fd5b81356116e281611501565b60006020828403121561187857600080fd5b5035919050565b80516001600160a01b0316825260006101c060208301516118ab60208601826001600160a01b03169052565b5060408301516118c660408601826001600160a01b03169052565b5060608301518160608601526118de8286018261157d565b915050608083015184820360808601526118f8828261157d565b91505060a083015184820360a0860152611912828261157d565b91505060c083015184820360c086015261192c828261157d565b60e08581015190870152610100808601519087015261012080860151908701526101408086015190870152610160808601519087015261018080860151908701526101a0948501519490950193909352509192915050565b6020815260006116e2602083018461187f565b600082601f8301126119a857600080fd5b813560206119b861179f83611730565b8083825260208201915060208460051b8701019350868411156119da57600080fd5b602086015b848110156119f657803583529183019183016119df565b509695505050505050565b60008060408385031215611a1457600080fd5b823567ffffffffffffffff811115611a2b57600080fd5b611a3785828601611997565b925050602083013561154e81611501565b600060208083016020845280855180835260408601915060408160051b87010192506020870160005b82811015611a9f57603f19888603018452611a8d8583516115a9565b94509285019290850190600101611a71565b5092979650505050505050565b600060208284031215611abe57600080fd5b813567ffffffffffffffff811115611ad557600080fd5b611ae184828501611997565b949350505050565b600060208083016020845280855180835260408601915060408160051b87010192506020870160005b82811015611a9f57603f19888603018452611b2e85835161187f565b94509285019290850190600101611b12565b600060208284031215611b5257600080fd5b81516116e281611501565b600060208284031215611b6f57600080fd5b815167ffffffffffffffff80821115611b8757600080fd5b818401915084601f830112611b9b57600080fd5b815181811115611bad57611bad6116e9565b611bc0601f8201601f19166020016116ff565b9150808252856020828501011115611bd757600080fd5b611be8816020840160208601611559565b50949350505050565b600060208284031215611c0357600080fd5b815160ff811681146116e257600080fd5b80516001600160701b038116811461152457600080fd5b600080600060608486031215611c4057600080fd5b611c4984611c14565b9250611c5760208501611c14565b9150604084015163ffffffff81168114611c7057600080fd5b809150509250925092565b600060208284031215611c8d57600080fd5b5051919050565b634e487b7160e01b600052603260045260246000fd5b634e487b7160e01b600052601160045260246000fd5b81810381811115611cd357611cd3611caa565b92915050565b600181815b80851115611d14578160001904821115611cfa57611cfa611caa565b80851615611d0757918102915b93841c9390800290611cde565b509250929050565b600082611d2b57506001611cd3565b81611d3857506000611cd3565b8160018114611d4e5760028114611d5857611d74565b6001915050611cd3565b60ff841115611d6957611d69611caa565b50506001821b611cd3565b5060208310610133831016604e8410600b8410161715611d97575081810a611cd3565b611da18383611cd9565b8060001904821115611db557611db5611caa565b029392505050565b60006116e28383611d1c565b8082028115828204841417611cd357611cd3611caa565b600082611dfd57634e487b7160e01b600052601260045260246000fd5b50049056fea2646970667358221220cd7233c1ee8200d79f14c860cdddde0def3e0236f738416b53ab01bac88a06c464736f6c63430008180033",
    "linkReferences": {},
    "deployedLinkReferences": {}
}